S01F0000536D6172744C6967687457697468496E746572727570742E737265639D
S11300000C942A000C943C000C943C000C94FB01CE
S11300100C943C000C943C000C943C000C943C006C
S11300200C943C000C943C000C943C000C94E101B6
S11300300C943C000C943C000C943C000C943C004C
S11300400C943C000C943C000C943C000C943C003C
S11300500C943C0011241FBECFE5D8E0DEBFCDBF19
S113006020E0A0E6B0E001C01D92A336B207E1F79C
S11300700E944B010C941D020C9400008830E8F49B
S113008061110EC04BB321E030E0B90102C0660F2C
S1130090771F8A95E2F7CB01809584238BBB089563
S11300A04BB321E030E0B90102C0660F771F8A9597
S11300B0E2F7CB01842B8BBB089598EF980F98300F
S11300C0E8F461110EC048B321E030E0B90102C088
S11300D0660F771F9A95E2F7CB018095842388BB3E
S11300E0089548B321E030E0B90102C0660F771FDC
S11300F09A95E2F7CB01842B88BB089590EF980F73
S11301009830E8F461110EC045B321E030E0B90144
S113011002C0660F771F9A95E2F7CB01809584237E
S113012085BB089545B321E030E0B90102C0660FF4
S1130130771F9A95E2F7CB01842B85BB08958851EC
S11301408830E0F461110EC042B321E030E0B9011F
S113015002C0660F771F8A95E2F7CB01809584234E
S113016082BB089542B321E030E0B90102C0660FBA
S1130170771F8A95E2F7CB01842B82BB08958830E0
S1130180E8F461110EC04AB321E030E0B90102C0C5
S1130190660F771F8A95E2F7CB01809584238ABB8B
S11301A008954AB321E030E0B90102C0660F771F19
S11301B08A95E2F7CB01842B8ABB089598EF980FB8
S11301C09830E8F461110EC047B321E030E0B90182
S11301D002C0660F771F9A95E2F7CB0180958423BE
S11301E087BB089547B321E030E0B90102C0660F30
S11301F0771F9A95E2F7CB01842B87BB089590EF84
S1130200980F9830E8F461110EC044B321E030E057
S1130210B90102C0660F771F9A95E2F7CB0180956A
S1130220842384BB089544B321E030E0B90102C0C3
S1130230660F771F9A95E2F7CB01842B84BB089550
S113024088518830E0F461110EC041B321E030E000
S1130250B90102C0660F771F8A95E2F7CB0180953A
S1130260842381BB089541B321E030E0B90102C089
S1130270660F771F8A95E2F7CB01842B81BB089523
S11302808FB780688FBF089584B7806484BF8BB7AD
S113029080628BBF089560E08AE00E94BF0061E045
S11302A08CE00E94BF0061E08DE00E94BF0061E02D
S11302B08EE00E94BF0061E08FE00E94BF000E94B8
S11302C040010E9412020E9444010E940A020E94FC
S11302D0160280916200813009F05DC061E08CE01B
S11302E00E943E0060E08EE00E943E0060E08DE0EF
S11302F00E943E0010926200809162008130B1F54C
S113030060E08CE00E943E0061E08EE00E943E00CE
S113031060E08DE00E943E001092620080916200D5
S1130320813079F460E08CE00E943E0060E08EE071
S11303300E943E0061E08DE00E943E001092620047
S1130340C8CF80916100813049F761E08CE00E9460
S11303503E0060E08EE00E943E0060E08DE00E947E
S11303603E001092610010926200B3CF8091610050
S1130370813011F660E08CE00E943E0061E08EE086
S11303800E943E0060E08DE00E943E0010926100F9
S1130390109262009ECF80916100813009F099CF64
S11303A060E08CE00E943E0061E08EE00E943E002E
S11303B060E08DE00E943E001092610010926200A5
S11303C088CF1F920F920FB60F9211248F938091B2
S11303D060008F5F80936000809160008F3F29F4FC
S11303E081E080936200109260008F910F900FBEA5
S11303F00F901F9018951F920F920FB60F92112411
S11304008F9381E0809361008F910F900FBE0F90C6
S11304101F90189512BE83B7877F83BF83B78F7BE6
S113042083BF089589B7816089BF089583B78160C8
S111043083BF83B7826083BF0895F894FFCF23
S9030000FC
