S01700004763634170706C69636174696F6E312E737265635B
S11300000C9434000C9449000C9449000C9449005D
S11300100C9449000C9449000C9449000C94490038
S11300200C9449000C9449000C9449000C94490028
S11300300C9449000C9449000C9449000C94490018
S11300400C9449000C9449000C9449000C94490008
S11300500C9449000C9449000C9449000C944900F8
S11300600C9449000C94490011241FBECFEFD8E032
S1130070DEBFCDBF13E0A0E0B1E0E0E7F1E102C0F4
S113008005900D92AA32B107D9F70E946F080C941B
S1130090B6080C940000CF93DF931F92CDB7DEB760
S11300A08983898188234CF48981882F90E0880F83
S11300B0991F982F8BE1892702C08981880F0F909F
S11300C0DF91CF910895CF93DF9300D01F92CDB7E6
S11300D0DEB79B838A838A819B81FC018585898322
S11300E08A819B810D962A813B81F9012185FC013E
S11300F020838A819B8109962A813B81F90125818C
S1130100FC0120838A819B8105962A813B81F90128
S11301102181FC0120838A819B8101962981FC0134
S113012020838A819B81FC01868589838A819B81C6
S11301300E962A813B81F9012681FC0120838A8164
S11301409B8106962981FC0120838A819B81FC0185
S1130150828589838A819B810A962A813B81F90160
S11301602281FC0120838A819B8102962981FC01E2
S113017020838A819B81FC01838189838A819B817D
S113018003962A813B81F9012781FC0120838A811E
S11301909B8107962A813B81F9012385FC012083F9
S11301A08A819B810B962A813B81F9012785FC0179
S11301B020838A819B810F962981FC012083000082
S11301C00F900F900F90DF91CF910895FF920F93AE
S11301D01F93CF93DF93CDB7DEB76B970FB6F89429
S11301E0DEBF0FBECDBF9F8B8E8B798F688F5B8FE9
S11301F04A8F8E899F8980569F4F9F8B8E8B8FE06D
S113020089831FC08981882F90E02A8D3B8D820FBE
S1130210931F2981222F30E0488D598D240F351FDB
S1130220F90160812981222F30E04E895F89240FF2
S1130230351FF90120812627FC0120838981815003
S1130240898389818823F1F6888D998DFC01208129
S11302508E899F89FC01808128278A8D9B8DFC01D2
S113026020838E899F8940979F8B8E8B8A8D9B8D4F
S11302700E94630019821BC08981882F90E02A8D17
S11302803B8D820F931F298131E0320F3983222F56
S113029030E04A8D5B8D240F351FF9012081222F18
S11302A030E020503F4FF9012081FC0120838981F7
S11302B0803110F389E08A8309C28FE0898320C0EA
S11302C08981882F90E09E012A5F3F4F820F931F00
S11302D02981222F30E04A8D5B8D240F351FF901CF
S11302E060812981222F30E04E895F89240F351FD8
S11302F0F90120812627FC0120838981815089838B
S113030089818823E9F68A8D9B8DFC0120818E8961
S11303109F89FC01808182278E83198298C18981FB
S1130320882F90E09E012A5F3F4F820F931FFC01AC
S113033040818981882F90E001969E012A5F3F4F7A
S1130340820F931FFC01808148278981882F90E0C8
S113035002969E012A5F3F4F820F931FFC0180810A
S113036048278981882F90E003969E012A5F3F4F9A
S1130370820F931FFC01808184278B838981882FBE
S113038090E02A8D3B8D8901080F191F8981882FE0
S113039090E09E012A5F3F4F820F931FFC019081E2
S11303A08B81F92EF8268981882F90E09E012A5F9F
S11303B03F4F820F931FFC0140818981882F90E079
S11303C001969E012A5F3F4F820F931FFC0180819B
S11303D084270E944B008F25F80180838981882F10
S11303E090E001962A8D3B8D8901080F191F8981A0
S11303F0882F90E001969E012A5F3F4F820F931F42
S1130400FC0190818B81F92EF8268981882F90E058
S113041001969E012A5F3F4F820F931FFC0140818A
S11304208981882F90E002969E012A5F3F4F820FB8
S1130430931FFC01808184270E944B008F25F801C3
S113044080838981882F90E002962A8D3B8D8901D3
S1130450080F191F8981882F90E002969E012A5F58
S11304603F4F820F931FFC0190818B81F92EF82658
S11304708981882F90E002969E012A5F3F4F820F68
S1130480931FFC0140818981882F90E003969E018F
S11304902A5F3F4F820F931FFC01808184270E94B3
S11304A04B008F25F80180838981882F90E0039683
S11304B02A8D3B8D8901080F191F8981882F90E0AF
S11304C003969E012A5F3F4F820F931FFC01908188
S11304D08B81F92EF8268981882F90E003969E015E
S11304E02A5F3F4F820F931FFC0140818981882F2F
S11304F090E09E012A5F3F4F820F931FFC01808191
S113050084270E944B008F25F80180838981882FDE
S113051090E09E012A5F3F4F820F931FFC014081B0
S11305208981882F90E002969E012A5F3F4F820FB7
S1130530931FFC01808184270E944B000E944B0082
S11305408C838981882F90E001969E012A5F3F4F1A
S1130550820F931FFC0140818981882F90E00396CC
S11305609E012A5F3F4F820F931FFC0180818427E5
S11305700E944B000E944B008D839C818D818927B2
S11305800E944B008B838981882F90E02A8D3B8DBC
S1130590820F931F2981222F30E04A8D5B8D240F17
S11305A0351FF90130814B812C8124272327FC013D
S11305B020838981882F90E001962A8D3B8D820FBC
S11305C0931F2981222F30E02F5F3F4F4A8D5B8D8F
S11305D0240F351FF90130814B812D8124272327D6
S11305E0FC0120838981882F90E002962A8D3B8D1F
S11305F0820F931F2981222F30E02E5F3F4F4A8DB7
S11306005B8D240F351FF90130814B812C81242708
S11306102327FC0120838981882F90E003962A8D6B
S11306203B8D820F931F2981222F30E02D5F3F4F96
S11306304A8D5B8D240F351FF90130814B812D814B
S113064024272327FC01208389818C5F8983898166
S1130650803108F464CE8A8D9B8D0E9463008FE004
S113066089831BC08981882F90E02A8D3B8D820F5E
S1130670931F29813FEF320F3983222F30E04A8DB7
S11306805B8D240F351FF9012081222F30E020508B
S11306903F4FF9012081FC0120838981882311F7D0
S11306A08A8D9B8DFC018081882F90E080509F4F24
S11306B0FC0120818A8D9B8DFC0120838E899F897A
S11306C040979F8B8E8B8A8181508A838A8188236D
S11306D009F0F3CD8FE089831FC08981882F90E0D2
S11306E02A8D3B8D820F931F2981222F30E04A8D62
S11306F05B8D240F351FF90160812981222F30E0A1
S11307004E895F89240F351FF90120812627FC01BA
S1130710208389818150898389818823F1F68A8D98
S11307209B8DFC0120818E899F89FC018081282773
S11307308A8D9B8DFC01208300006B960FB6F89484
S1130740DEBF0FBECDBFDF91CF911F910F91FF9000
S11307500895CF93DF931F92CDB7DEB78983898144
S113076088234CF48981882F90E0880F991F982F53
S11307708BE1892702C08981880F0F90DF91CF9187
S11307800895CF93DF9300D01F92CDB7DEB79B833C
S11307908A838A819B81FC01818189838A819B81EF
S11307A001962A813B81F9012581FC0120838A81FC
S11307B09B8105962A813B81F9012185FC012083D7
S11307C08A819B8109962A813B81F9012585FC0157
S11307D020838A819B810D962981FC0120838A8153
S11307E09B81FC01828189838A819B8102962A8173
S11307F03B81F9012285FC0120838A819B810A9631
S11308002981FC0120838A819B81FC018681898363
S11308108A819B8106962A813B81F9012685FC0108
S113082020838A819B810E962981FC0120838A8101
S11308309B81FC01878589838A819B810F962A810C
S11308403B81F9012385FC0120838A819B810B96DE
S11308502A813B81F9012781FC0120838A819B81C4
S113086007962A813B81F9012381FC0120838A8137
S11308709B8103962981FC01208300000F900F9037
S11308800F90DF91CF9108950F931F93CF93DF9330
S1130890CDB7DEB769970FB6F894DEBF0FBECDBFF4
S11308A09D8B8C8B7F8B6E8B598F488F19821FC0C9
S11308B08981882F90E0288D398D280F391F8981EF
S11308C0882F90E04E895F89840F951FFC01608119
S11308D08C899D89AC014F5F5F4F5D8B4C8BFC0114
S11308E080818627F901808389818F5F898389814B
S11308F08031F0F289E08A835CC18FE089831CC077
S11309008981882F90E09E012C5F3F4F820F931FB7
S113091029813FEF320F3983222F30E0488D598DE2
S1130920240F351FF9012081222F30E020503E4F43
S1130930F9012081FC0120838981882309F7888DAE
S1130940998DFC018081882F90E080509E4FFC019E
S113095080818C83CE0104960E94C1031982FEC05B
S11309608981882F90E09E012C5F3F4F820F931F57
S1130970FC0140818981882F90E001969E012C5FC3
S11309803F4F820F931FFC01808148278981882F64
S113099090E002969E012C5F3F4F820F931FFC0153
S11309A0808148278981882F90E003969E012C5FDF
S11309B03F4F820F931FFC01808184278B838981A1
S11309C0882F90E0288D398D8901080F191F89819E
S11309D0882F90E09E012C5F3F4F820F931FFC01F4
S11309E040818981882F90E001969E012C5F3F4FC2
S11309F0820F931FFC01808184270E94A903482F42
S1130A008981882F90E09E012C5F3F4F820F931FB6
S1130A10FC018081942F98278B818927F80180839A
S1130A208981882F90E00196288D398D8901080FDE
S1130A30191F8981882F90E001969E012C5F3F4FFA
S1130A40820F931FFC0140818981882F90E00296D8
S1130A509E012C5F3F4F820F931FFC0180818427EE
S1130A600E94A903482F8981882F90E001969E0156
S1130A702C5F3F4F820F931FFC018081942F982796
S1130A808B818927F80180838981882F90E00296E1
S1130A90288D398D8901080F191F8981882F90E0CD
S1130AA002969E012C5F3F4F820F931FFC014081F1
S1130AB08981882F90E003969E012C5F3F4F820F1F
S1130AC0931FFC01808184270E94A903482F8981F8
S1130AD0882F90E002969E012C5F3F4F820F931F58
S1130AE0FC018081942F98278B818927F8018083CA
S1130AF08981882F90E00396288D398D8901080F0C
S1130B00191F8981882F90E003969E012C5F3F4F27
S1130B10820F931FFC0140818981882F90E09E0100
S1130B202C5F3F4F820F931FFC01808184270E941A
S1130B30A903482F8981882F90E003969E012C5F9A
S1130B403F4F820F931FFC018081942F98278B8144
S1130B508927F801808389818C5F89838981803129
S1130B6008F4FECE19821FC08C899D899C012F5FD9
S1130B703F4F3D8B2C8BFC0160818981882F90E055
S1130B80288D398D820F931F2981222F30E0488DC3
S1130B90598D240F351FF90120812627FC0120835C
S1130BA089818F5F898389818031F0F28A818150C4
S1130BB08A838A81882309F0A0CE8FE089831BC0B1
S1130BC08981882F90E0288D398D820F931F298188
S1130BD03FEF320F3983222F30E0488D598D240F97
S1130BE0351FF9012081222F30E020503E4FF901BA
S1130BF02081FC0120838981882311F7888D998DB8
S1130C00FC018081882F90E080509E4FFC01208160
S1130C10888D998DFC012083888D998D0E94C10354
S1130C2019821FC08C899D899C012F5F3F4F3D8B8A
S1130C302C8BFC0160818981882F90E0288D398D6F
S1130C40820F931F2981222F30E0488D598D240F64
S1130C50351FF90120812627FC01208389818F5FBC
S1130C60898389818031F0F2000069960FB6F89487
S1130C70DEBF0FBECDBFDF91CF911F910F910895BD
S1130C80CF93DF93CDB7DEB72D970FB6F894DEBFC1
S1130C900FBECDBF9B878A877D876C871B8215C05B
S1130CA08C859D859C012F5F3F4F3D872C872A852E
S1130CB03B85A9014F5F5F4F5B874A87F90120811C
S1130CC0FC0120838B818F5F8B838B81803140F388
S1130CD08C859D8504979A8389831B82F2C18981BF
S1130CE09A819C012F5F3F4F3A832983FC018081C5
S1130CF0882F90E080509E4FFC01808189878981F4
S1130D009A819C012F5F3F4F3A832983FC018081A4
S1130D10882F90E080509E4FFC0180818E838981D2
S1130D209A819C012F5F3F4F3A832983FC01808184
S1130D30882F90E080509E4FFC0180818F838981B1
S1130D409A819C012F5F3F4F3A832983FC01808164
S1130D50882F90E080509E4FFC01808188872E81EF
S1130D608B81882F90E080509D4FFC0180818227E9
S1130D708E838C859D8540979D838C838C859D85F2
S1130D809C012F5F3F4F3D872C876E812C813D81D5
S1130D90A9014F5F5F4F5D834C83F90120812627B2
S1130DA0FC0120838C859D859C012F5F3F4F3D87EF
S1130DB02C876F812C813D81A9014F5F5F4F5D833B
S1130DC04C83F90120812627FC0120838C859D8595
S1130DD09C012F5F3F4F3D872C8768852C813D8187
S1130DE0A9014F5F5F4F5D834C83F9012081262762
S1130DF0FC0120838C859D859C012F5F3F4F3D879F
S1130E002C8769852C813D81A9014F5F5F4F5D83EC
S1130E104C83F90120812627FC0120838C859D8544
S1130E209C012F5F3F4F3D872C8729813A81A9017F
S1130E304F5F5F4F5A834983F90160812C813D8163
S1130E40A9014F5F5F4F5D834C83F9012081262701
S1130E50FC0120838C859D859C012F5F3F4F3D873E
S1130E602C8729813A81A9014F5F5F4F5A834983B7
S1130E70F90160812C813D81A9014F5F5F4F5D8342
S1130E804C83F90120812627FC0120838C859D85D4
S1130E909C012F5F3F4F3D872C8729813A81A9010F
S1130EA04F5F5F4F5A834983F90160812C813D81F3
S1130EB0A9014F5F5F4F5D834C83F9012081262791
S1130EC0FC0120838C859D859C012F5F3F4F3D87CE
S1130ED02C8729813A81A9014F5F5F4F5A83498347
S1130EE0F90160812C813D81A9014F5F5F4F5D83D2
S1130EF04C83F90120812627FC0120838C859D8564
S1130F009C012F5F3F4F3D872C8729813A81A9019E
S1130F104F5F5F4F5A834983F90160812C813D8182
S1130F20A9014F5F5F4F5D834C83F9012081262720
S1130F30FC0120838C859D859C012F5F3F4F3D875D
S1130F402C8729813A81A9014F5F5F4F5A834983D6
S1130F50F90160812C813D81A9014F5F5F4F5D8361
S1130F604C83F90120812627FC0120838C859D85F3
S1130F709C012F5F3F4F3D872C8729813A81A9012E
S1130F804F5F5F4F5A834983F90160812C813D8112
S1130F90A9014F5F5F4F5D834C83F90120812627B0
S1130FA0FC0120838C859D859C012F5F3F4F3D87ED
S1130FB02C8729813A81A9014F5F5F4F5A83498366
S1130FC0F90160812C813D81A9014F5F5F4F5D83F1
S1130FD04C83F90120812627FC0120838C859D8583
S1130FE09C012F5F3F4F3D872C8729813A81A901BE
S1130FF04F5F5F4F5A834983F90160812C813D81A2
S1131000A9014F5F5F4F5D834C83F901208126273F
S1131010FC0120838C859D859C012F5F3F4F3D877C
S11310202C8729813A81A9014F5F5F4F5A834983F5
S1131030F90160812C813D81A9014F5F5F4F5D8380
S11310404C83F90120812627FC0120838C859D8512
S11310509C012F5F3F4F3D872C8729813A81A9014D
S11310604F5F5F4F5A834983F90160812C813D8131
S1131070A9014F5F5F4F5D834C83F90120812627CF
S1131080FC0120838C859D859C012F5F3F4F3D870C
S11310902C8729813A81A9014F5F5F4F5A83498385
S11310A0F90160812C813D81A9014F5F5F4F5D8310
S11310B04C83F90120812627FC0120838B818F5FDB
S11310C08B838B818A3008F40ACE00002D960FB6EC
S11310D0F894DEBF0FBECDBFDF91CF910895CF93BB
S11310E0DF93CDB7DEB7C05ED1090FB6F894DEBF8B
S11310F00FBECDBF20E1EAE0F3E0CE010196DC01B2
S113110001900D922A95E1F780E1EAE1F3E0DE0136
S1131110519601900D928A95E1F7CE01C196BC01DA
S1131120CE0101960E944006AE014F5D5F4F9E01C5
S11311302F5E3F4FCE01C196B9010E944404AE0117
S11311404F5D5F4F9E012F5D3F4FCE01C196B901A8
S11311500E94E60080E090E0C052DF4F0FB6F894A2
S1131160DEBF0FBECDBFDF91CF910895F894FFCFBE
S113117052096AD53036A538BF40A39E81F3D7FB08
S11311807CE339829B2FFF87348E4344C4DEE9CB52
S1131190547B9432A6C2233DEE4C950B42FAC34EC7
S11311A0082EA16628D924B2765BA2496D8BD1257D
S11311B072F8F66486689816D4A45CCC5D65B69221
S11311C06C704850FDEDB9DA5E154657A78D9D84C5
S11311D090D8AB008CBCD30AF7E45805B8B34506E5
S11311E0D02C1E8FCA3F0F02C1AFBD0301138A6BFF
S11311F03A9111414F67DCEA97F2CFCEF0B4E6732F
S113120096AC7422E7AD3585E2F937E81C75DF6EDC
S113121047F11A711D29C5896FB7620EAA18BE1B42
S1131220FC563E4BC6D279209ADBC0FE78CD5AF4E8
S11312301FDDA8338807C731B11210592780EC5F2E
S113124060517FA919B54A0D2DE57A9F93C99CEF8A
S1131250A0E03B4DAE2AF5B0C8EBBB3C835399618B
S1131260172B047EBA77D626E169146355210C7DC9
S1131270637C777BF26B6FC53001672BFED7AB764F
S1131280CA82C97DFA5947F0ADD4A2AF9CA472C0FA
S1131290B7FD9326363FF7CC34A5E5F171D8311567
S11312A004C723C31896059A071280E2EB27B27588
S11312B009832C1A1B6E5AA0523BD6B329E32F8400
S11312C053D100ED20FCB15B6ACBBE394A4C58CFF8
S11312D0D0EFAAFB434D338545F9027F503C9FA8CC
S11312E051A3408F929D38F5BCB6DA2110FFF3D29A
S11312F0CD0C13EC5F974417C4A77E3D645D19734E
S113130060814FDC222A908846EEB814DE5E0BDB47
S1131310E0323A0A4906245CC2D3AC629195E4797E
S1131320E7C8376D8DD54EA96C56F4EA657AAE08D8
S1131330BA78252E1CA6B4C6E8DD741F4BBD8B8A73
S1131340703EB5664803F60E613557B986C11D9ED9
S1131350E1F8981169D98E949B1E87E9CE5528DF50
S11313608CA1890DBFE6426841992D0FB054BB167C
S113137001020408102040801B360001020304050A
S1131380060708090A0B0C0D0E0F001122334455F1
S10D139066778899AABBCCDDEEFF56
S9030000FC
