:100000000C9434000C9449000C9449000C94490061
:100010000C9449000C9449000C9449000C9449003C
:100020000C9449000C9449000C9449000C9449002C
:100030000C9449000C9449000C9449000C9449001C
:100040000C9449000C9449000C9449000C9449000C
:100050000C9449000C9449000C9449000C944900FC
:100060000C9449000C94490011241FBECFEFD8E036
:10007000DEBFCDBF13E0A0E0B1E0E6E1F4E102C0F5
:1000800005900D92AA32B107D9F70E94B0090C94DD
:10009000090A0C940000CF93DF931F92CDB7DEB70F
:1000A00089838981882344F48981880F8983998190
:1000B0008BE18927898303C08981880F898389819E
:1000C0000F90DF91CF910895CF93DF9300D01F92CF
:1000D000CDB7DEB79B838A838A819B81FC018585AE
:1000E00089838A819B810D962A813B81F901218533
:1000F000FC0120838A819B8109962A813B81F90139
:100100002581FC0120838A819B8105962A813B8180
:10011000F9012181FC0120838A819B81019629813B
:10012000FC0120838A819B81FC01868589838A81E9
:100130009B810E962A813B81F9012681FC01208357
:100140008A819B8106962981FC0120838A819B817B
:10015000FC01828589838A819B810A962A813B8161
:10016000F9012281FC0120838A819B8102962981E9
:10017000FC0120838A819B81FC01838189838A81A0
:100180009B8103962A813B81F9012781FC01208311
:100190008A819B8107962A813B81F9012385FC0195
:1001A00020838A819B810B962A813B81F9012785D7
:1001B000FC0120838A819B810F962981FC01208389
:1001C00000000F900F900F90DF91CF910895FF9254
:1001D0000F931F93CF93DF93CDB7DEB7CB51D140B1
:1001E0000FB6F894DEBF0FBECDBF9E012A5E3E4F14
:1001F000F90191838083CE01885E9E4FFC0171835B
:100200006083CE01865E9E4FFC015183408380E077
:10021000E0E0F2E0DE01169601900D928A95E1F79A
:10022000CE018A5E9E4F9E012A5E3E4FF9012081DB
:10023000318120563F4FFC01318320838FE0898339
:100240002BC08981882F90E09E01265E3E4FF901E8
:1002500020813181820F931F2981222F30E0AE014E
:10026000485E5E4FFA0140815181240F351FF9012C
:1002700060812981222F30E0AE014A5E5E4FFA0193
:1002800040815181240F351FF90120812627FC016F
:1002900020838981815089838981882391F6CE01C9
:1002A000885E9E4FFC0180819181FC012081CE01FE
:1002B0008A5E9E4FFC0180819181FC01808128270C
:1002C000CE01865E9E4FFC0180819181FC012083DE
:1002D000CE018A5E9E4F9E012A5E3E4FF90120812B
:1002E000318120513109FC0131832083CE01865EAA
:1002F0009E4FFC01808191810E946400198226C07A
:100300008981882F90E09E01265E3E4FF901208171
:100310003181820F931F2981222F30E0AE01465E8A
:100320005E4FFA0140815181240F351FF901208170
:10033000222F30E0AE014A5F5F4F240F351FF901D5
:100340002081FC01208389818F5F898389818031AD
:10035000B8F289E08A8371C28FE0898329C08981DC
:10036000882F90E02981222F30E0AE01465E5E4F5B
:10037000FA0140815181240F351FF90160812981E3
:10038000222F30E0AE014A5E5E4FFA01408151817A
:10039000240F351FF9012081462F42279E012A5F35
:1003A0003E4F820F931FFC014083898181508983D6
:1003B00089818823A1F6CE01865E9E4FFC01808153
:1003C0009181FC012081CE018A5E9E4FFC018081DB
:1003D0009181FC0180812827CE018A5F9E4FFC011C
:1003E00020831982C8C18981882F90E09E012A5FED
:1003F0003E4F820F931FFC0140818981882F90E03E
:1004000001969E012A5F3E4F820F931FFC0180815F
:1004100048278981882F90E002969E012A5F3E4FEF
:10042000820F931FFC01808148278981882F90E0EB
:1004300003969E012A5F3E4F820F931FFC0180812D
:1004400084278B838981882F90E09E01265E3E4F12
:10045000F901208131818901080F191F8981882FB5
:1004600090E09E012A5F3E4F820F931FFC01908116
:100470008B81F92EF8268981882F90E09E012A5FD2
:100480003E4F820F931FFC0140818981882F90E0AD
:1004900001969E012A5F3E4F820F931FFC018081CF
:1004A00084270E944B008F25F80180838981882F43
:1004B00090E001969E01265E3E4FF9012081318138
:1004C0008901080F191F8981882F90E001969E01EC
:1004D0002A5F3E4F820F931FFC0190818B81F92E82
:1004E000F8268981882F90E001969E012A5F3E4F71
:1004F000820F931FFC0140818981882F90E0029632
:100500009E012A5F3E4F820F931FFC01808184274A
:100510000E944B008F25F80180838981882F90E00D
:1005200002969E01265E3E4FF901208131818901AC
:10053000080F191F8981882F90E002969E012A5F7B
:100540003E4F820F931FFC0190818B81F92EF8267C
:100550008981882F90E002969E012A5F3E4F820F8C
:10056000931FFC0140818981882F90E003969E01B2
:100570002A5F3E4F820F931FFC01808184270E94D7
:100580004B008F25F80180838981882F90E00396A6
:100590009E01265E3E4FF901208131818901080FBD
:1005A000191F8981882F90E003969E012A5F3E4F94
:1005B000820F931FFC0190818B81F92EF82689818F
:1005C000882F90E003969E012A5F3E4F820F931F73
:1005D000FC0140818981882F90E09E012A5F3E4F77
:1005E000820F931FFC01808184270E944B008F257E
:1005F000F80180838981882F90E09E012A5F3E4F19
:10060000820F931FFC0140818981882F90E0029620
:100610009E012A5F3E4F820F931FFC018081842739
:100620000E944B000E944B008C838981882F90E0B0
:1006300001969E012A5F3E4F820F931FFC0140816D
:100640008981882F90E003969E012A5F3E4F820F9A
:10065000931FFC01808184270E944B000E944B0065
:100660008D839C818D8189270E944B008B8389819A
:10067000882F90E09E01265E3E4FF9012081318156
:10068000820F931F2981222F30E0AE01465E5E4F1C
:10069000FA0140815181240F351FF90130814B81CE
:1006A0002C8124272327FC0120838981882F90E037
:1006B00001969E01265E3E4FF90120813181820F15
:1006C000931F2981222F30E02F5F3F4FAE01465EFE
:1006D0005E4FFA0140815181240F351FF9013081AD
:1006E0004B812D8124272327FC0120838981882F9A
:1006F00090E002969E01265E3E4FF90120813181F5
:10070000820F931F2981222F30E02E5F3F4FAE01D1
:10071000465E5E4FFA0140815181240F351FF90179
:1007200030814B812C8124272327FC012083898160
:10073000882F90E003969E01265E3E4FF9012081AE
:100740003181820F931F2981222F30E02D5F3F4F8F
:10075000AE01465E5E4FFA0140815181240F351F84
:10076000F90130814B812D8124272327FC0120832F
:1007700089818C5F89838981803108F434CECE01F0
:10078000865E9E4FFC01808191810E9464008FE013
:10079000898326C08981882F90E09E01265E3E4F86
:1007A000F90120813181820F931F2981222F30E0AE
:1007B000AE01465E5E4FFA0140815181240F351F24
:1007C000F9012081222F30E0AE014A5F5F4F240FF4
:1007D000351FF9012081FC012083898181508983A3
:1007E00089818823B9F6CE01865E9E4FFC01808107
:1007F0009181FC018081882F90E09E012A5F3F4F0C
:10080000820F931FFC012081CE01865E9E4FFC016A
:1008100080819181FC012083CE018A5E9E4F9E01E2
:100820002A5E3E4FF9012081318120513109FC01BE
:10083000318320838A8181508A838A81882309F0C9
:100840008BCD8FE089832BC08981882F90E09E011A
:10085000265E3E4FF90120813181820F931F29814D
:10086000222F30E0AE01465E5E4FFA014081518199
:10087000240F351FF90160812981222F30E0AE015C
:100880004A5E5E4FFA0140815181240F351FF90104
:1008900020812627FC0120838981815089838981D9
:1008A000882391F6CE01865E9E4FFC018081918166
:1008B000FC012081CE018A5E9E4FFC0180819181E6
:1008C000FC0180812827CE01865E9E4FFC0180813D
:1008D0009181FC0120830000C55EDE4F0FB6F894C5
:1008E000DEBF0FBECDBFDF91CF911F910F91FF9063
:1008F0000895CF93DF931F92CDB7DEB789838981A7
:10090000882344F48981880F898399818BE1892721
:10091000898303C08981880F898389810F90DF9142
:10092000CF910895CF93DF9300D01F92CDB7DEB75C
:100930009B838A838A819B81FC01818189838A814F
:100940009B8101962A813B81F9012581FC0120834D
:100950008A819B8105962A813B81F9012185FC01D1
:1009600020838A819B8109962A813B81F901258513
:10097000FC0120838A819B810D962981FC012083C3
:100980008A819B81FC01828189838A819B81029675
:100990002A813B81F9012285FC0120838A819B8188
:1009A0000A962981FC0120838A819B81FC01868132
:1009B00089838A819B8106962A813B81F90126855C
:1009C000FC0120838A819B810E962981FC01208372
:1009D0008A819B81FC01878589838A819B810F960F
:1009E0002A813B81F9012385FC0120838A819B8137
:1009F0000B962A813B81F9012781FC0120838A81A2
:100A00009B8107962A813B81F9012381FC01208388
:100A10008A819B8103962981FC01208300000F902D
:100A20000F900F90DF91CF9108950F931F93CF9365
:100A3000DF93CDB7DEB769970FB6F894DEBF0FBE70
:100A4000CDBF9D8B8C8B7F8B6E8B598F488F19827E
:100A50001FC08981882F90E0288D398D820F931FC8
:100A60002981222F30E04E895F89240F351FF9013B
:100A700040812C893D89F90120812427FC012083B4
:100A80008C899D8901969D8B8C8B89818F5F898351
:100A900089818031F0F289E08A835CC18FE08983AB
:100AA0001CC08981882F90E02981222F30E0488D59
:100AB000598D240F351FF9012081222F30E020505D
:100AC0003F4FF90140819E012C5F3F4F820F931FE2
:100AD000FC0140838981815089838981882309F7BA
:100AE000888D998DFC018081882F90E080509F4FE8
:100AF000FC0180818C83CE0104960E9492041982AD
:100B0000FEC08981882F90E09E012C5F3F4F820FAD
:100B1000931FFC0140818981882F90E001969E01FE
:100B20002C5F3F4F820F931FFC01808148278981F2
:100B3000882F90E002969E012C5F3F4F820F931FFB
:100B4000FC01808148278981882F90E003969E01CF
:100B50002C5F3F4F820F931FFC01808184278B8382
:100B60008981882F90E0288D398D8901080F191F00
:100B70008981882F90E09E012C5F3F4F820F931F49
:100B8000FC0140818981882F90E001969E012C5FB5
:100B90003F4F820F931FFC01808184270E947904BC
:100BA000482F8981882F90E09E012C5F3F4F820F54
:100BB000931FFC018081942F98278B818927F8014E
:100BC00080838981882F90E00196288D398D890155
:100BD000080F191F8981882F90E001969E012C5FD4
:100BE0003F4F820F931FFC0140818981882F90E045
:100BF00002969E012C5F3F4F820F931FFC01808164
:100C000084270E947904482F8981882F90E00196DB
:100C10009E012C5F3F4F820F931FFC018081942F18
:100C200098278B818927F80180838981882F90E01C
:100C30000296288D398D8901080F191F8981882F07
:100C400090E002969E012C5F3F4F820F931FFC01A4
:100C500040818981882F90E003969E012C5F3F4F51
:100C6000820F931FFC01808184270E947904482F02
:100C70008981882F90E002969E012C5F3F4F820F62
:100C8000931FFC018081942F98278B818927F8017D
:100C900080838981882F90E00396288D398D890182
:100CA000080F191F8981882F90E003969E012C5F01
:100CB0003F4F820F931FFC0140818981882F90E074
:100CC0009E012C5F3F4F820F931FFC018081842780
:100CD0000E947904482F8981882F90E003969E0115
:100CE0002C5F3F4F820F931FFC018081942F982728
:100CF0008B818927F801808389818C5F8983898131
:100D0000803108F4FECE19821FC08981882F90E0BF
:100D1000288D398D820F931F2981222F30E0488D35
:100D2000598D240F351FF90140812C893D89F90126
:100D300020812427FC0120838C899D8901969D8B2D
:100D40008C8B89818F5F898389818031F0F28A81E0
:100D500081508A838A81882309F0A0CE8FE089831D
:100D60001BC08981882F90E0288D398D820F931FB9
:100D70002981222F30E0488D598D240F351FF9012C
:100D80002081222F30E020503F4FF9012081FC01CB
:100D900020838981815089838981882311F7888DF7
:100DA000998DFC018081882F90E080509F4FFC013D
:100DB0002081888D998DFC012083888D998D0E94DA
:100DC000920419821FC08981882F90E0288D398D67
:100DD000820F931F2981222F30E0488D598D240FD7
:100DE000351FF90140812C893D89F9012081242793
:100DF000FC0120838C899D8901969D8B8C8B898138
:100E00008F5F898389818031F0F2000069960FB687
:100E1000F894DEBF0FBECDBFDF91CF911F910F9130
:100E20000895CF93DF93CDB7DEB764970FB6F894EC
:100E3000DEBF0FBECDBF9A8B898B7C8B6B8B8AE01C
:100E4000E0E0F3E0DE01139601900D928A95E1F760
:100E5000198215C08981882F90E02B893C89820FE7
:100E6000931F2981222F30E049895A89240F351F89
:100E7000F9012081FC01208389818F5F8983898129
:100E8000803140F380E18A8319825CC28A81882F95
:100E900090E004972B893C89820F931FFC0180818D
:100EA000882F90E080509F4FFC018081888B8A8141
:100EB000882F90E003972B893C89820F931FFC01B8
:100EC0008081882F90E080509F4FFC0180818D872A
:100ED0008A81882F90E002972B893C89820F931F8B
:100EE000FC018081882F90E080509F4FFC01808121
:100EF0008E878A81882F90E001972B893C89820F09
:100F0000931FFC018081882F90E080509F4FFC014F
:100F100080818F874D858981882F90E09E012D5F8C
:100F20003F4F820F931FFC01808184278D878A8128
:100F3000882F90E02B893C89820F931F6D852A8131
:100F4000222F30E0205131094B895C89240F351F55
:100F5000F90120812627FC0120838A818F5F8A8303
:100F60008A81882F90E02B893C89820F931F6E85A0
:100F70002A81222F30E0205131094B895C89240FCE
:100F8000351FF90120812627FC0120838A818F5F8C
:100F90008A838A81882F90E02B893C89820F931F56
:100FA0006F852A81222F30E0205131094B895C89DD
:100FB000240F351FF90120812627FC0120838A8117
:100FC0008F5F8A838A81882F90E02B893C89820FEA
:100FD000931F68892A81222F30E0205131094B89E3
:100FE0005C89240F351FF90120812627FC0120830D
:100FF0008A818F5F8A838A81882F90E02B893C8940
:10100000820F931F2A81222F30E0245031094B890F
:101010005C89240F351FF90160812A81222F30E07D
:10102000205131094B895C89240F351FF90120813A
:101030002627FC0120838A818F5F8A838A81882FFB
:1010400090E02B893C89820F931F2A81222F30E068
:10105000245031094B895C89240F351FF9016081C7
:101060002A81222F30E0205131094B895C89240FDD
:10107000351FF90120812627FC0120838A818F5F9B
:101080008A838A81882F90E02B893C89820F931F65
:101090002A81222F30E0245031094B895C89240FAA
:1010A000351FF90160812A81222F30E0205131095A
:1010B0004B895C89240F351FF90120812627FC010B
:1010C00020838A818F5F8A838A81882F90E02B8991
:1010D0003C89820F931F2A81222F30E0245031094E
:1010E0004B895C89240F351FF90160812A81222FE9
:1010F00030E0205131094B895C89240F351FF901FB
:1011000020812627FC0120838A818F5F8A838A8140
:10111000882F90E02B893C89820F931F2A81222FF0
:1011200030E0245031094B895C89240F351FF901C7
:1011300060812A81222F30E0205131094B895C895E
:10114000240F351FF90120812627FC0120838A8185
:101150008F5F8A838A81882F90E02B893C89820F58
:10116000931F2A81222F30E0245031094B895C895A
:10117000240F351FF90160812A81222F30E0205190
:1011800031094B895C89240F351FF90120812627FD
:10119000FC0120838A818F5F8A838A81882F90E077
:1011A0002B893C89820F931F2A81222F30E0245003
:1011B00031094B895C89240F351FF90160812A812F
:1011C000222F30E0205131094B895C89240F351FD3
:1011D000F90120812627FC0120838A818F5F8A8381
:1011E0008A81882F90E02B893C89820F931F2A8166
:1011F000222F30E0245031094B895C89240F351FA0
:10120000F90160812A81222F30E0205131094B8978
:101210005C89240F351FF90120812627FC012083DA
:101220008A818F5F8A838A81882F90E02B893C890D
:10123000820F931F2A81222F30E0245031094B89DD
:101240005C89240F351FF90160812A81222F30E04B
:10125000205131094B895C89240F351FF901208108
:101260002627FC0120838A818F5F8A838A81882FC9
:1012700090E02B893C89820F931F2A81222F30E036
:10128000245031094B895C89240F351FF901608195
:101290002A81222F30E0205131094B895C89240FAB
:1012A000351FF90120812627FC0120838A818F5F69
:1012B0008A838A81882F90E02B893C89820F931F33
:1012C0002A81222F30E0245031094B895C89240F78
:1012D000351FF90160812A81222F30E02051310928
:1012E0004B895C89240F351FF90120812627FC01D9
:1012F00020838A818F5F8A838A81882F90E02B895F
:101300003C89820F931F2A81222F30E0245031091B
:101310004B895C89240F351FF90160812A81222FB6
:1013200030E0205131094B895C89240F351FF901C8
:1013300020812627FC0120838A818F5F8A8389810F
:101340008F5F898389818A3008F4A0CD000064967C
:101350000FB6F894DEBF0FBECDBFDF91CF910895D9
:10136000CF93DF93CDB7DEB7C25ED1090FB6F89445
:10137000DEBF0FBECDBF80E1EAE0F3E0DE011396F1
:1013800001900D928A95E1F780E1EAE1F3E0DE0158
:10139000539601900D928A95E1F720E1CE01839654
:1013A000FC01322F11923A95E9F720EBCE01C3965A
:1013B000FC01322F11923A95E9F79E012D5C3F4FC7
:1013C000CE010396B9010E941107AE014D5D5F4F3A
:1013D0009E012D5E3F4FCE01C396B9010E941505B7
:1013E000CE0183969A838983AE014D5D5F4F29813B
:1013F0003A81CE01C396B9010E94E70080E0CE5148
:10140000DF4F0FB6F894DEBF0FBECDBFDF91CF9197
:061410000895F894FFCFDF
:10141600637C777BF26B6FC53001672BFED7AB76AB
:10142600CA82C97DFA5947F0ADD4A2AF9CA472C056
:10143600B7FD9326363FF7CC34A5E5F171D83115C3
:1014460004C723C31896059A071280E2EB27B275E4
:1014560009832C1A1B6E5AA0523BD6B329E32F845C
:1014660053D100ED20FCB15B6ACBBE394A4C58CF54
:10147600D0EFAAFB434D338545F9027F503C9FA828
:1014860051A3408F929D38F5BCB6DA2110FFF3D2F6
:10149600CD0C13EC5F974417C4A77E3D645D1973AA
:1014A60060814FDC222A908846EEB814DE5E0BDBA4
:1014B600E0323A0A4906245CC2D3AC629195E479DB
:1014C600E7C8376D8DD54EA96C56F4EA657AAE0835
:1014D600BA78252E1CA6B4C6E8DD741F4BBD8B8AD0
:1014E600703EB5664803F60E613557B986C11D9E36
:1014F600E1F8981169D98E949B1E87E9CE5528DFAD
:101506008CA1890DBFE6426841992D0FB054BB16D8
:1015160052096AD53036A538BF40A39E81F3D7FB62
:101526007CE339829B2FFF87348E4344C4DEE9CBAC
:10153600547B9432A6C2233DEE4C950B42FAC34E21
:10154600082EA16628D924B2765BA2496D8BD125D7
:1015560072F8F66486689816D4A45CCC5D65B6927B
:101566006C704850FDEDB9DA5E154657A78D9D841F
:1015760090D8AB008CBCD30AF7E45805B8B345063F
:10158600D02C1E8FCA3F0F02C1AFBD0301138A6B59
:101596003A9111414F67DCEA97F2CFCEF0B4E67389
:1015A60096AC7422E7AD3585E2F937E81C75DF6E37
:1015B60047F11A711D29C5896FB7620EAA18BE1B9D
:1015C600FC563E4BC6D279209ADBC0FE78CD5AF443
:1015D6001FDDA8338807C731B11210592780EC5F89
:1015E60060517FA919B54A0D2DE57A9F93C99CEFE5
:1015F600A0E03B4DAE2AF5B0C8EBBB3C83539961E6
:10160600172B047EBA77D626E169146355210C7D23
:1016160001020408102040801B3600010203040565
:10162600060708090A0B0C0D0E0F0011223344554C
:0A16360066778899AABBCCDDEEFFB1
:00000001FF
