:100000000C9434000C943E000C943E000C943E0082
:100010000C943E000C943E000C943E000C943E0068
:100020000C943E000C943E000C943E000C943E0058
:100030000C943E000C943E000C943E000C943E0048
:100040000C943E000C943E000C943E000C943E0038
:100050000C943E004E005F00700081009200A300EF
:10006000B400C500D600E70011241FBECFE5D8E0DC
:10007000DEBFCDBF0E9475020C9499020C94000063
:1000800061E00E94F800089590E08A30910508F040
:10009000AEC0FC01E65DFF4F0C94930260E088E087
:1000A0000E94F80060E089E00E94F80060E08AE0C9
:1000B0000E94F80060E08BE00E94F800089561E083
:1000C00088E00E94F80060E089E00E94F80060E0AB
:1000D0008AE00E94F80060E08BE00E94F80008953A
:1000E00060E088E00E94F80061E089E00E94F8008A
:1000F00060E08AE00E94F80060E08BE00E94F80077
:10010000089561E088E00E94F80061E089E00E94C3
:10011000F80060E08AE00E94F80060E08BE00E9456
:10012000F800089560E088E00E94F80060E089E04F
:100130000E94F80061E08AE00E94F80060E08BE035
:100140000E94F800089561E088E00E94F80060E0F5
:1001500089E00E94F80061E08AE00E94F80060E017
:100160008BE00E94F800089560E088E00E94F800AB
:1001700061E089E00E94F80061E08AE00E94F800F6
:1001800060E08BE00E94F800089561E088E00E9442
:10019000F80061E089E00E94F80061E08AE00E94D6
:1001A000F80060E08BE00E94F800089560E088E0CD
:1001B0000E94F80060E089E00E94F80060E08AE0B8
:1001C0000E94F80061E08BE00E94F800089561E071
:1001D00088E00E94F80060E089E00E94F80060E09A
:1001E0008AE00E94F80061E08BE00E94F800089528
:1001F0008830E8F461110EC04BB321E030E0B90162
:1002000002C0660F771F8A95E2F7CB0180958423A1
:100210008BBB08954BB321E030E0B90102C0660FFB
:10022000771F8A95E2F7CB01842B8BBB089598EF5B
:10023000980F9830E8F461110EC048B321E030E027
:10024000B90102C0660F771F9A95E2F7CB0180953E
:10025000842388BB089548B321E030E0B90102C08F
:10026000660F771F9A95E2F7CB01842B88BB089520
:1002700090EF980F9830E8F461110EC045B321E07B
:1002800030E0B90102C0660F771F9A95E2F7CB0103
:100290008095842385BB089545B321E030E0B90102
:1002A00002C0660F771F9A95E2F7CB01842B85BBBE
:1002B000089588518830E0F461110EC042B321E006
:1002C00030E0B90102C0660F771F8A95E2F7CB01D3
:1002D0008095842382BB089542B321E030E0B901C8
:1002E00002C0660F771F8A95E2F7CB01842B82BB91
:1002F0000895883058F429B330E0A90102C055951B
:1003000047958A95E2F7CA018170089528EF280F72
:10031000283048F486B390E002C0959587952A95D9
:10032000E2F78170089520EF280F283048F483B356
:1003300090E002C0959587952A95E2F7817008951F
:1003400028EE280F283050F490B3892F90E002C097
:10035000959587952A95E2F78170089508958830DC
:10036000E8F461110EC04AB321E030E0B90102C0E7
:10037000660F771F8A95E2F7CB01809584238ABBAD
:1003800008954AB321E030E0B90102C0660F771F3B
:100390008A95E2F7CB01842B8ABB089598EF980FDA
:1003A0009830E8F461110EC047B321E030E0B901A4
:1003B00002C0660F771F9A95E2F7CB0180958423E0
:1003C00087BB089547B321E030E0B90102C0660F52
:1003D000771F9A95E2F7CB01842B87BB089590EFA6
:1003E000980F9830E8F461110EC044B321E030E07A
:1003F000B90102C0660F771F9A95E2F7CB0180958D
:10040000842384BB089544B321E030E0B90102C0E5
:10041000660F771F9A95E2F7CB01842B84BB089572
:10042000883129F4611102C088980895889A089546
:1004300060E082E10E94AF0160E083E10E94AF01D1
:1004400060E084E10E94AF0161E082E10E94F80077
:1004500061E083E10E94F80061E084E10E94F8001D
:1004600061E085E10E94AF0161E086E10E94AF0199
:1004700061E087E10E94AF0161E085E10E94F80040
:1004800061E086E10E94F80061E087E10E94F800E7
:100490000895CF93DF93D0E061E085E10E94F800FA
:1004A00061E086E10E94F80061E087E10E94F800C7
:1004B00060E085E18D0F0E94F800C0E082E18C0FC2
:1004C0000E947901811107C08C2F880FC80FDF5F50
:1004D0008C2F8D0F07C0CF5FC33081F7DF5FD33024
:1004E000D9F6D9CFDF91CF91089561E088E00E94DD
:1004F000AF0161E089E00E94AF0161E08AE00E9403
:10050000AF0161E08BE00E94AF0161E08FE10E94EA
:10051000AF010E9418028FE10E9440000E94490230
:100520000E944400FBCFEE0FFF1F0590F491E02DD9
:060530000994F894FFCFCE
:00000001FF
