:100000000C942A000C943C000C943C000C943C0092
:100010000C943C000C943C000C943C000C943C0070
:100020000C943C000C943C000C943C000C943C0060
:100030000C943C000C943C000C943C000C943C0050
:100040000C943C000C943C000C943C000C943C0040
:100050000C943C0011241FBECFE5D8E0DEBFCDBF1D
:1000600020E0A0E6B0E001C01D92A236B207E1F7A1
:100070000E946F000C9481020C940000CF93DF93D8
:10008000D82FC62F61E08EE10E94FD0061E08FE174
:100090000E94FD00CC2319F0C13051F012C061E084
:1000A0008EE10E947C0060E08FE10E947C0011C024
:1000B00060E08EE10E947C0061E08FE10E947C00A4
:1000C00008C060E08EE10E947C0061E08FE10E9448
:1000D0007C008D2F0E942402DF91CF91089500EFC4
:1000E0001FEF2DE144E062E080E00E947E0160E0CD
:1000F00080E00E943E00FFCF8830E8F461110EC01E
:100100004BB321E030E0B90102C0660F771F8A953A
:10011000E2F7CB01809584238BBB08954BB321E09C
:1001200030E0B90102C0660F771F8A95E2F7CB0174
:10013000842B8BBB089598EF980F9830E8F46111E9
:100140000EC048B321E030E0B90102C0660F771F4E
:100150009A95E2F7CB018095842388BB089548B334
:1001600021E030E0B90102C0660F771F9A95E2F7EF
:10017000CB01842B88BB089590EF980F9830E8F45A
:1001800061110EC045B321E030E0B90102C0660F35
:10019000771F9A95E2F7CB018095842385BB08955C
:1001A00045B321E030E0B90102C0660F771F9A9590
:1001B000E2F7CB01842B85BB089588518830E0F4A9
:1001C00061110EC042B321E030E0B90102C0660FF8
:1001D000771F8A95E2F7CB018095842382BB08952F
:1001E00042B321E030E0B90102C0660F771F8A9563
:1001F000E2F7CB01842B82BB08958830E8F46111CB
:100200000EC04AB321E030E0B90102C0660F771F8B
:100210008A95E2F7CB01809584238ABB08954AB37F
:1002200021E030E0B90102C0660F771F8A95E2F73E
:10023000CB01842B8ABB089598EF980F9830E8F48F
:1002400061110EC047B321E030E0B90102C0660F72
:10025000771F9A95E2F7CB018095842387BB089599
:1002600047B321E030E0B90102C0660F771F9A95CD
:10027000E2F7CB01842B87BB089590EF980F98305D
:10028000E8F461110EC044B321E030E0B90102C0CE
:10029000660F771F9A95E2F7CB018095842384BB84
:1002A000089544B321E030E0B90102C0660F771F22
:1002B0009A95E2F7CB01842B84BB0895885188304E
:1002C000E0F461110EC041B321E030E0B90102C099
:1002D000660F771F8A95E2F7CB018095842381BB57
:1002E000089541B321E030E0B90102C0660F771FE5
:1002F0008A95E2F7CB01842B81BB0895FF920F937F
:100300001F93CF93DF93F82ED62FC42F1DBC1CBC98
:10031000222319F0213041F00FC061E08CE10E94EE
:10032000FD00109261000FC061E08DE10E94FD00B0
:1003300081E08093610007C061E08DE10E94FD00D3
:1003400081E080936100FF2021F081E0F81671F0D8
:100350001AC08FB58E7F8FBD8FB582608FBD8FB570
:1003600088608FBD8FB580618FBD19C08FB58E7FBE
:100370008FBD8FB582608FBD8FB5877F8FBD8FB5E5
:1003800080618FBD0CC08FB58E7F8FBD8FB58260B1
:100390008FBD8FB588608FBD8FB580618FBDD13027
:1003A00059F018F0D23079F015C08FB580648FBD48
:1003B0008FB58F778FBD14C08FB58F7B8FBD8FB5F5
:1003C00080688FBD0DC08FB580648FBD8FB580688C
:1003D0008FBD06C08FB580648FBD8FB580688FBD1F
:1003E000C23091F028F4CC2341F0C13049F018C05C
:1003F000C33071F0C43081F013C01092600013C09C
:1004000081E0809360000FC082E0809360000BC0A9
:1004100083E08093600007C084E08093600003C0A5
:1004200082E080936000C80103978D3F910518F426
:1004300017BD06BD03C017BC8FEF86BDDF91CF91FE
:100440001F910F91FF90089580916100882319F00A
:10045000813029F008C019BC84E688BD07C01BBCE8
:1004600084E68ABD03C01BBC84E68ABD809160001F
:100470008230F9F028F4882341F0813081F037C0D0
:10048000833009F1843049F132C08EB581608EBD70
:100490008EB58D7F8EBD8EB58B7F8EBD08958EB54A
:1004A0008E7F8EBD8EB582608EBD8EB58B7F8EBDEC
:1004B00008958EB581608EBD8EB582608EBD8EB57D
:1004C0008B7F8EBD08958EB58E7F8EBD8EB58D7F50
:1004D0008EBD8EB584608EBD08958EB581608EBD53
:1004E0008EB58D7F8EBD8EB584608EBD08958EB520
:1004F00081608EBD8EB58D7F8EBD8EB584608EBDC4
:060500000895F894FFCFFE
:00000001FF
