S01D00005454435F5363686564756C65725F537072696E74342E737265630B
S11300000C942A000C943C000C943C000C943C008E
S11300100C943C000C943C000C943C000C943C006C
S11300200C943C000C943C000C94B5020C943C00E1
S11300300C943C000C943C000C943C000C943C004C
S11300400C943C000C943C000C943C000C943C003C
S11300500C943C0011241FBECFE5D8E0DEBFCDBF19
S113006020E0A0E6B0E001C01D92AD38B207E1F790
S11300700E9462000C942A040C94000062E08CE05C
S11300800E945A00089562E08DE00E945A0008958B
S113009062E08EE00E945A0008958A3029F0873188
S11300A039F40E94550108958AE00E94550108958B
S11300B08FEF0895623019F40E94130108950E948D
S11300C09200089560E08AE00E948C0161E08CE077
S11300D00E948C0161E08DE00E948C0161E08EE061
S11300E00E948C0161E08FE00E948C010E94E0027A
S11300F043E06CE271E08EE390E00E94970347E0F6
S11301006CE271E083E490E00E94970341E06CE2CA
S113011071E088E490E00E9497030E94EE0280E080
S113012090E008958830E8F461110EC04BB321E0EB
S113013030E0B90102C0660F771F8A95E2F7CB0160
S1130140809584238BBB08954BB321E030E0B90143
S113015002C0660F771F8A95E2F7CB01842B8BBB15
S1130160089598EF980F9830E8F461110EC048B3E1
S113017021E030E0B90102C0660F771F9A95E2F7DB
S1130180CB018095842388BB089548B321E030E0F7
S1130190B90102C0660F771F9A95E2F7CB01842B51
S11301A088BB089590EF980F9830E8F461110EC061
S11301B045B321E030E0B90102C0660F771F9A957C
S11301C0E2F7CB018095842385BB089545B321E0F4
S11301D030E0B90102C0660F771F9A95E2F7CB01B0
S11301E0842B85BB089588518830E0F461110EC0DA
S11301F042B321E030E0B90102C0660F771F8A954F
S1130200E2F7CB018095842382BB089542B321E0B9
S113021030E0B90102C0660F771F8A95E2F7CB017F
S1130220842B82BB0895883068F44BB321E030E01E
S1130230B90102C0660F771F8A95E2F7CB018427C4
S11302408BBB089598EF980F983068F448B321E079
S113025030E0B90102C0660F771F9A95E2F7CB012F
S1130260842788BB089590EF980F983068F445B3BD
S113027021E030E0B90102C0660F771F9A95E2F7DA
S1130280CB01842785BB089598EE980F983060F4CD
S113029042B321E030E0B90102C0660F771F9A959E
S11302A0E2F7CB01842782BB0895883058F429B340
S11302B030E0A90102C0559547958A95E2F7CA0135
S11302C08170089528EF280F283048F486B390E011
S11302D002C0959587952A95E2F78170089520EFDD
S11302E0280F283048F483B390E002C09595879591
S11302F02A95E2F78170089528EE280F283050F4EB
S113030090B3892F90E002C0959587952A95E2F7DE
S1130310817008958FEF08958830E8F461110EC05C
S11303204AB321E030E0B90102C0660F771F8A9515
S1130330E2F7CB01809584238ABB08954AB321E078
S113034030E0B90102C0660F771F8A95E2F7CB014E
S1130350842B8ABB089598EF980F9830E8F46111C4
S11303600EC047B321E030E0B90102C0660F771F29
S11303709A95E2F7CB018095842387BB089547B310
S113038021E030E0B90102C0660F771F9A95E2F7C9
S1130390CB01842B87BB089590EF980F9830E8F435
S11303A061110EC044B321E030E0B90102C0660F10
S11303B0771F9A95E2F7CB018095842384BB089537
S11303C044B321E030E0B90102C0660F771F9A956B
S11303D0E2F7CB01842B84BB089588518830E0F484
S11303E061110EC041B321E030E0B90102C0660FD3
S11303F0771F8A95E2F7CB018095842381BB08950A
S113040041B321E030E0B90102C0660F771F8A953D
S1130410E2F7CB01842B81BB089512BE813069F0D1
S113042028F0823089F08330B1F01CC083B78F7B11
S113043083BF83B7877F83BF1BC083B7806483BFB9
S113044083B7877F83BF14C083B78F7B83BF83B792
S1130450886083BF0DC083B7806483BF83B788601F
S113046083BF06C083B78F7B83BF83B7877F83BF78
S1130470623091F028F4662341F0613049F018C0ED
S1130480633071F0643081F013C01092600013C0C7
S113049081E0809360000FC082E0809360000BC015
S11304A083E08093600007C084E08093600003C011
S11304B082E0809360004CBF08958FB780688FBF3F
S11304C089B7826089BF089580916000823009F104
S11304D028F4882341F0813089F03CC0833021F135
S11304E0843069F137C083B7816083BF83B78D7F60
S11304F083BF83B78B7F83BF12BE089583B78E7F7C
S113050083BF83B7826083BF83B78B7F83BF12BEF1
S1130510089583B7816083BF83B7826083BF83B745
S11305208B7F83BF12BE089583B78E7F83BF83B74B
S11305308D7F83BF83B7846083BF12BE089583B762
S1130540816083BF83B78D7F83BF83B7846083BF9C
S113055012BE089583B7816083BF83B7826083BF6F
S113056083B78B7F83BF12BE08951F920F920FB67D
S11305700F9211242F933F934F935F936F937F9325
S11305808F939F93AF93BF93EF93FF93E091620098
S1130590F09163000995FF91EF91BF91AF919F9105
S11305A08F917F916F915F914F913F912F910F9018
S11305B00FBE0F901F90189581E0809364000895FA
S11305C04AEF62E082E00E940D020E945D028CED1F
S11305D092E090936300809362000895CF93DF9339
S11305E0CDB7DEB728970FB6F894DEBF0FBECDBFE8
S11305F00E946402EE24E394809164008130A9F5A2
S11306001092640080916100882379F1F12C0F2D00
S113061010E0000F111F000F111F000F111F0B59C5
S11306201F4FD80117968C91179781110FC01496FC
S11306308D919C911597892B49F4ED91FC91099525
S1130640F80182819381958384830AC0D80114962A
S11306508D919C911597019715969C938E93149761
S1130660F39480916100F81690F28AE00E944D00A4
S1130670813011F680916100882329F180E0282FD0
S113068030E0F901EE0FFF1FEE0FFF1FEE0FFF1F0B
S1130690EB59FF4F408151814E53504079F4220F62
S11306A0331F220F331F220F331FF901EB59FF4F62
S11306B0E782909161009150909361008F5F9091D7
S11306C061008917E0F250916100552309F494CF39
S11306D06FEF650F26C0FC01478137853417C0F4DE
S11306E038E0DE01119601900D923A95E1F738E079
S11306F0FC013896DC0101900D923A95E1F738E05F
S1130700FE013196DC01189601900D923A95E1F7BD
S11307102F5F08965213DFCF662309F46DCF515033
S113072061505523E1F385E690E020E0D4CFCF93E8
S1130730DF93CDB7DEB728970FB6F894DEBF0FBEB0
S1130740CDBF9C0190916100953008F041C0E091CB
S11307506100F0E0EE0FFF1FEE0FFF1FEE0FFF1F13
S1130760EB59FF4F31832083E0916100F0E0EE0FFD
S1130770FF1FEE0FFF1FEE0FFF1FEB59FF4F738399
S11307806283E0916100F0E0EE0FFF1FEE0FFF1FA8
S1130790EE0FFF1FEB59FF4F75836483E0916100F7
S11307A0F0E0EE0FFF1FEE0FFF1FEE0FFF1FEB59E0
S11307B0FF4F4683E0916100F0E0EE0FFF1FEE0F64
S11307C0FF1FEE0FFF1FEB59FF4F178281E001C09F
S11307D080E0909161009F5F90936100709161004F
S11307E06FEF670F71F1725026C0F901568146858B
S11307F04517C0F448E0DE01119601900D924A9528
S1130800E1F748E0F9013896D90101900D924A9533
S1130810E1F748E0FE013196D901189601900D9256
S11308204A95E1F79F5F285F3F4F6913DECF772337
S113083041F0615071506623E1F325E630E090E029
S1130840D4CF28960FB6F894DEBF0FBECDBFDF918C
S10B0850CF910895F894FFCF45
S9030000FC
