S0140000557365725F53746F72795F382E737265635A
S11300000C942A000C9434000C9434000C943400A6
S11300100C9434000C9434000C9434000C9434008C
S11300200C9434000C9434000C9434000C9434007C
S11300300C9434000C9434000C9434000C9434006C
S11300400C9434000C9434000C9434000C9434005C
S11300500C94340011241FBECFE5D8E0DEBFCDBF21
S11300600E946E010C9431020C9400008830E8F474
S113007061110EC04BB321E030E0B90102C0660F3C
S1130080771F8A95E2F7CB01809584238BBB089573
S11300904BB321E030E0B90102C0660F771F8A95A7
S11300A0E2F7CB01842B8BBB089598EF980F98301F
S11300B0E8F461110EC048B321E030E0B90102C098
S11300C0660F771F9A95E2F7CB018095842388BB4E
S11300D0089548B321E030E0B90102C0660F771FEC
S11300E09A95E2F7CB01842B88BB089590EF980F83
S11300F09830E8F461110EC045B321E030E0B90155
S113010002C0660F771F9A95E2F7CB01809584238E
S113011085BB089545B321E030E0B90102C0660F04
S1130120771F9A95E2F7CB01842B85BB08958851FC
S11301308830E0F461110EC042B321E030E0B9012F
S113014002C0660F771F8A95E2F7CB01809584235E
S113015082BB089542B321E030E0B90102C0660FCA
S1130160771F8A95E2F7CB01842B82BB08958830F0
S113017058F429B330E0A90102C0559547958A95F2
S1130180E2F7CA018170089528EF280F283048F457
S113019086B390E002C0959587952A95E2F7817021
S11301A0089520EF280F283048F483B390E002C06C
S11301B0959587952A95E2F78170089528EE280F82
S11301C0283050F490B3892F90E002C0959587951C
S11301D02A95E2F78170089508958830E8F4611152
S11301E00EC04AB321E030E0B90102C0660F771FA8
S11301F08A95E2F7CB01809584238ABB08954AB39C
S113020021E030E0B90102C0660F771F8A95E2F75A
S1130210CB01842B8ABB089598EF980F9830E8F4AB
S113022061110EC047B321E030E0B90102C0660F8E
S1130230771F9A95E2F7CB018095842387BB0895B5
S113024047B321E030E0B90102C0660F771F9A95E9
S1130250E2F7CB01842B87BB089590EF980F983079
S1130260E8F461110EC044B321E030E0B90102C0EA
S1130270660F771F9A95E2F7CB018095842384BBA0
S1130280089544B321E030E0B90102C0660F771F3E
S11302909A95E2F7CB01842B84BB0895885188306A
S11302A0E0F461110EC041B321E030E0B90102C0B5
S11302B0660F771F8A95E2F7CB018095842381BB73
S11302C0089541B321E030E0B90102C0660F771F01
S11302D08A95E2F7CB01842B81BB08950E942A0200
S11302E060E08AE00E94ED0061E08CE00E94ED0095
S11302F061E08DE00E94ED0061E08EE00E94ED007F
S1130300C9E161E08CE00E94360060E08DE00E946B
S1130310360060E08EE00E94360068E270E080E023
S113032090E00E9405028AE00E94B700882391F0C1
S113033061E08DE00E94360060E08CE00E943600AF
S113034060E08BE00E94360068EE73E080E090E0AD
S11303500E940502C150A9F6C9E160E08CE00E9448
S1130360360060E08DE00E94360061E08EE00E947D
S1130370360068E270E080E090E00E9405028AE0C6
S11303800E94B700882391F060E08CE00E94360060
S113039061E08DE00E94360060E08EE00E9436004D
S11303A068EE73E080E090E00E940502C150A9F677
S11303B0C9E160E08CE00E94360061E08DE00E94BB
S11303C0360060E08EE00E94360068E270E080E073
S11303D090E00E9405028AE00E94B700882391F011
S11303E060E08CE00E94360061E08DE00E943600FF
S11303F060E08EE00E94360068EE73E080E090E0FA
S11304000E940502C150A9F67BCFAB01BC0183B7A2
S1130410816083BF83B7826083BF41155105610545
S11304207105B9F008B601FEFDCF83B78E7F83BF97
S113043083B78D7F83BF88B7826088BF83B78160AD
S113044083BF83B7826083BF415051096109710939
S113045049F7089512BE83B7806483BF8AEF8CBFC7
S10904600895F894FFCF9B
S9030000FC
